{
  "_format": "hh-sol-artifact-1",
  "contractName": "VotingSystem",
  "sourceName": "contracts/VotingSystem.sol",
  "abi": [
    {
      "anonymous": false,
      "inputs": [
        {
          "indexed": true,
          "internalType": "uint256",
          "name": "pollId",
          "type": "uint256"
        },
        {
          "indexed": false,
          "internalType": "string",
          "name": "question",
          "type": "string"
        },
        {
          "indexed": false,
          "internalType": "string[]",
          "name": "options",
          "type": "string[]"
        }
      ],
      "name": "PollCreated",
      "type": "event"
    },
    {
      "anonymous": false,
      "inputs": [
        {
          "indexed": true,
          "internalType": "uint256",
          "name": "pollId",
          "type": "uint256"
        },
        {
          "indexed": false,
          "internalType": "uint256",
          "name": "optionIndex",
          "type": "uint256"
        },
        {
          "indexed": true,
          "internalType": "address",
          "name": "voter",
          "type": "address"
        }
      ],
      "name": "VoteCast",
      "type": "event"
    },
    {
      "inputs": [
        {
          "internalType": "string",
          "name": "_question",
          "type": "string"
        },
        {
          "internalType": "string[]",
          "name": "_optionNames",
          "type": "string[]"
        }
      ],
      "name": "createPoll",
      "outputs": [],
      "stateMutability": "nonpayable",
      "type": "function"
    },
    {
      "inputs": [
        {
          "internalType": "uint256",
          "name": "_pollId",
          "type": "uint256"
        }
      ],
      "name": "getResults",
      "outputs": [
        {
          "internalType": "string[]",
          "name": "names",
          "type": "string[]"
        },
        {
          "internalType": "uint256[]",
          "name": "counts",
          "type": "uint256[]"
        }
      ],
      "stateMutability": "view",
      "type": "function"
    },
    {
      "inputs": [
        {
          "internalType": "uint256",
          "name": "",
          "type": "uint256"
        }
      ],
      "name": "polls",
      "outputs": [
        {
          "internalType": "string",
          "name": "question",
          "type": "string"
        },
        {
          "internalType": "bool",
          "name": "exists",
          "type": "bool"
        }
      ],
      "stateMutability": "view",
      "type": "function"
    },
    {
      "inputs": [
        {
          "internalType": "uint256",
          "name": "_pollId",
          "type": "uint256"
        },
        {
          "internalType": "uint256",
          "name": "_optionIndex",
          "type": "uint256"
        }
      ],
      "name": "vote",
      "outputs": [],
      "stateMutability": "nonpayable",
      "type": "function"
    }
  ],
  "bytecode": "0x6080604052348015600f57600080fd5b506114788061001f6000396000f3fe608060405234801561001057600080fd5b506004361061004c5760003560e01c80637e3d71c31461005157806381a60c0d1461006d578063ac2f00741461009e578063b384abef146100cf575b600080fd5b61006b60048036038101906100669190610a01565b6100eb565b005b61008760048036038101906100829190610aaf565b61026a565b604051610095929190610cdb565b60405180910390f35b6100b860048036038101906100b39190610aaf565b6104bf565b6040516100c6929190610d77565b60405180910390f35b6100e960048036038101906100e49190610da7565b610588565b005b600181511161012f576040517f08c379a000000000000000000000000000000000000000000000000000000000815260040161012690610e59565b60405180910390fd5b6000806001816001815401808255809150500390600052602060002090600402019050828160000190816101639190611085565b5060018160030160006101000a81548160ff02191690831515021790555060005b8251811015610219578160010160405180604001604052808584815181106101af576101ae611157565b5b602002602001015181526020016000815250908060018154018082558091505060019003906000526020600020906002020160009091909190915060008201518160000190816101ff9190611085565b506020820151816001015550508080600101915050610184565b50600160008054905061022c91906111b5565b7f4be3f505bf50604bde92e6940e2df40c36f90cb362640413d520080ca12eabb2848460405161025d9291906111e9565b60405180910390a2505050565b606080600080848154811061028257610281611157565b5b906000526020600020906004020190508060030160009054906101000a900460ff166102e3576040517f08c379a00000000000000000000000000000000000000000000000000000000081526004016102da9061126c565b60405180910390fd5b6000816001018054905090508067ffffffffffffffff811115610309576103086107f0565b5b60405190808252806020026020018201604052801561033c57816020015b60608152602001906001900390816103275790505b5093508067ffffffffffffffff811115610359576103586107f0565b5b6040519080825280602002602001820160405280156103875781602001602082028036833780820191505090505b50925060005b818110156104b7578260010181815481106103ab576103aa611157565b5b906000526020600020906002020160000180546103c790610ea8565b80601f01602080910402602001604051908101604052809291908181526020018280546103f390610ea8565b80156104405780601f1061041557610100808354040283529160200191610440565b820191906000526020600020905b81548152906001019060200180831161042357829003601f168201915b505050505085828151811061045857610457611157565b5b602002602001018190525082600101818154811061047957610478611157565b5b90600052602060002090600202016001015484828151811061049e5761049d611157565b5b602002602001018181525050808060010191505061038d565b505050915091565b600081815481106104cf57600080fd5b90600052602060002090600402016000915090508060000180546104f290610ea8565b80601f016020809104026020016040519081016040528092919081815260200182805461051e90610ea8565b801561056b5780601f106105405761010080835404028352916020019161056b565b820191906000526020600020905b81548152906001019060200180831161054e57829003601f168201915b5050505050908060030160009054906101000a900460ff16905082565b600080838154811061059d5761059c611157565b5b906000526020600020906004020190508060030160009054906101000a900460ff166105fe576040517f08c379a00000000000000000000000000000000000000000000000000000000081526004016105f5906112d8565b60405180910390fd5b8060020160003373ffffffffffffffffffffffffffffffffffffffff1673ffffffffffffffffffffffffffffffffffffffff16815260200190815260200160002060009054906101000a900460ff161561068d576040517f08c379a000000000000000000000000000000000000000000000000000000000815260040161068490611344565b60405180910390fd5b806001018054905082106106d6576040517f08c379a00000000000000000000000000000000000000000000000000000000081526004016106cd906113b0565b60405180910390fd5b60018160020160003373ffffffffffffffffffffffffffffffffffffffff1673ffffffffffffffffffffffffffffffffffffffff16815260200190815260200160002060006101000a81548160ff02191690831515021790555080600101828154811061074657610745611157565b5b90600052602060002090600202016001016000815480929190610768906113d0565b91905055503373ffffffffffffffffffffffffffffffffffffffff16837f7fe1d4e6b34e228b5dc059fcdc037c71b216fb2417f47c171e505144a5e4f5fc846040516107b49190611427565b60405180910390a3505050565b6000604051905090565b600080fd5b600080fd5b600080fd5b600080fd5b6000601f19601f8301169050919050565b7f4e487b7100000000000000000000000000000000000000000000000000000000600052604160045260246000fd5b610828826107df565b810181811067ffffffffffffffff82111715610847576108466107f0565b5b80604052505050565b600061085a6107c1565b9050610866828261081f565b919050565b600067ffffffffffffffff821115610886576108856107f0565b5b61088f826107df565b9050602081019050919050565b82818337600083830152505050565b60006108be6108b98461086b565b610850565b9050828152602081018484840111156108da576108d96107da565b5b6108e584828561089c565b509392505050565b600082601f830112610902576109016107d5565b5b81356109128482602086016108ab565b91505092915050565b600067ffffffffffffffff821115610936576109356107f0565b5b602082029050602081019050919050565b600080fd5b600061095f61095a8461091b565b610850565b9050808382526020820190506020840283018581111561098257610981610947565b5b835b818110156109c957803567ffffffffffffffff8111156109a7576109a66107d5565b5b8086016109b489826108ed565b85526020850194505050602081019050610984565b5050509392505050565b600082601f8301126109e8576109e76107d5565b5b81356109f884826020860161094c565b91505092915050565b60008060408385031215610a1857610a176107cb565b5b600083013567ffffffffffffffff811115610a3657610a356107d0565b5b610a42858286016108ed565b925050602083013567ffffffffffffffff811115610a6357610a626107d0565b5b610a6f858286016109d3565b9150509250929050565b6000819050919050565b610a8c81610a79565b8114610a9757600080fd5b50565b600081359050610aa981610a83565b92915050565b600060208284031215610ac557610ac46107cb565b5b6000610ad384828501610a9a565b91505092915050565b600081519050919050565b600082825260208201905092915050565b6000819050602082019050919050565b600081519050919050565b600082825260208201905092915050565b60005b83811015610b42578082015181840152602081019050610b27565b60008484015250505050565b6000610b5982610b08565b610b638185610b13565b9350610b73818560208601610b24565b610b7c816107df565b840191505092915050565b6000610b938383610b4e565b905092915050565b6000602082019050919050565b6000610bb382610adc565b610bbd8185610ae7565b935083602082028501610bcf85610af8565b8060005b85811015610c0b5784840389528151610bec8582610b87565b9450610bf783610b9b565b925060208a01995050600181019050610bd3565b50829750879550505050505092915050565b600081519050919050565b600082825260208201905092915050565b6000819050602082019050919050565b610c5281610a79565b82525050565b6000610c648383610c49565b60208301905092915050565b6000602082019050919050565b6000610c8882610c1d565b610c928185610c28565b9350610c9d83610c39565b8060005b83811015610cce578151610cb58882610c58565b9750610cc083610c70565b925050600181019050610ca1565b5085935050505092915050565b60006040820190508181036000830152610cf58185610ba8565b90508181036020830152610d098184610c7d565b90509392505050565b600082825260208201905092915050565b6000610d2e82610b08565b610d388185610d12565b9350610d48818560208601610b24565b610d51816107df565b840191505092915050565b60008115159050919050565b610d7181610d5c565b82525050565b60006040820190508181036000830152610d918185610d23565b9050610da06020830184610d68565b9392505050565b60008060408385031215610dbe57610dbd6107cb565b5b6000610dcc85828601610a9a565b9250506020610ddd85828601610a9a565b9150509250929050565b7f4174206c656173742074776f206f7074696f6e7320617265207265717569726560008201527f6421000000000000000000000000000000000000000000000000000000000000602082015250565b6000610e43602283610d12565b9150610e4e82610de7565b604082019050919050565b60006020820190508181036000830152610e7281610e36565b9050919050565b7f4e487b7100000000000000000000000000000000000000000000000000000000600052602260045260246000fd5b60006002820490506001821680610ec057607f821691505b602082108103610ed357610ed2610e79565b5b50919050565b60008190508160005260206000209050919050565b60006020601f8301049050919050565b600082821b905092915050565b600060088302610f3b7fffffffffffffffffffffffffffffffffffffffffffffffffffffffffffffffff82610efe565b610f458683610efe565b95508019841693508086168417925050509392505050565b6000819050919050565b6000610f82610f7d610f7884610a79565b610f5d565b610a79565b9050919050565b6000819050919050565b610f9c83610f67565b610fb0610fa882610f89565b848454610f0b565b825550505050565b600090565b610fc5610fb8565b610fd0818484610f93565b505050565b5b81811015610ff457610fe9600082610fbd565b600181019050610fd6565b5050565b601f8211156110395761100a81610ed9565b61101384610eee565b81016020851015611022578190505b61103661102e85610eee565b830182610fd5565b50505b505050565b600082821c905092915050565b600061105c6000198460080261103e565b1980831691505092915050565b6000611075838361104b565b9150826002028217905092915050565b61108e82610b08565b67ffffffffffffffff8111156110a7576110a66107f0565b5b6110b18254610ea8565b6110bc828285610ff8565b600060209050601f8311600181146110ef57600084156110dd578287015190505b6110e78582611069565b86555061114f565b601f1984166110fd86610ed9565b60005b8281101561112557848901518255600182019150602085019450602081019050611100565b86831015611142578489015161113e601f89168261104b565b8355505b6001600288020188555050505b505050505050565b7f4e487b7100000000000000000000000000000000000000000000000000000000600052603260045260246000fd5b7f4e487b7100000000000000000000000000000000000000000000000000000000600052601160045260246000fd5b60006111c082610a79565b91506111cb83610a79565b92508282039050818111156111e3576111e2611186565b5b92915050565b600060408201905081810360008301526112038185610d23565b905081810360208301526112178184610ba8565b90509392505050565b7f506f6c6c206e6f7420666f756e64000000000000000000000000000000000000600082015250565b6000611256600e83610d12565b915061126182611220565b602082019050919050565b6000602082019050818103600083015261128581611249565b9050919050565b7f506f6c6c20646f65736e27742065786973740000000000000000000000000000600082015250565b60006112c2601283610d12565b91506112cd8261128c565b602082019050919050565b600060208201905081810360008301526112f1816112b5565b9050919050565b7f596f7527766520616c726561647920766f746564000000000000000000000000600082015250565b600061132e601483610d12565b9150611339826112f8565b602082019050919050565b6000602082019050818103600083015261135d81611321565b9050919050565b7f496e76616c6964206f7074696f6e000000000000000000000000000000000000600082015250565b600061139a600e83610d12565b91506113a582611364565b602082019050919050565b600060208201905081810360008301526113c98161138d565b9050919050565b60006113db82610a79565b91507fffffffffffffffffffffffffffffffffffffffffffffffffffffffffffffffff820361140d5761140c611186565b5b600182019050919050565b61142181610a79565b82525050565b600060208201905061143c6000830184611418565b9291505056fea264697066735822122047ed899cae7cd6d59936e1c3c80b9e70a757f76852042feb3e77be2b840da6cb64736f6c634300081c0033",
  "linkReferences": {},
  "deployedLinkReferences": {}
}